:060000000A128A11122809
:10000800FE00030E83120313A3000408A4000A08C9
:10001800A5007F08A6000A128A1123280A128A114D
:1000280015280A128A11C2270A128A11FB00B70181
:10003800F801F901FA0183010A128A116F2D0B1DCB
:1000480026282728242A0B116C308100061C2D280D
:100058002E289F287B03031D322833289F2802302F
:10006800FB000610861406158615061A3C283D283E
:1000780065280A128A118D270A128A117808F40055
:100088005830F50001300A128A1188260A128A119E
:1000980001300A128A115E270A128A110130FF0004
:1000A8007F08F807083083120313A2009D30A100CF
:1000B8000530A000A00B5E28A10B5E28A20B5E28CD
:1000C800242A861A682869287F280A128A118D2707
:1000D8000A128A117808F4005E30F50001300A121D
:1000E8008A1188260A128A1104300A128A115E2798
:1000F8000A128A115228061B8228832899280A1274
:100108008A118D270A128A117808F4006430F500E4
:1001180001300A128A1188260A128A1107300A1237
:100128008A115E270A128A115228861B9C289D284C
:100138009E285628242A861CA228A328172902307C
:100148007B06031DA828A92817290330FB000614DD
:10015800861006158615061AB228B328C9280A1269
:100168008A118D270A128A117808F4005A30F5008E
:1001780001300A128A1188260A128A1102300A12DC
:100188008A115E270A128A115228861ACC28CD288D
:10019800E3280A128A118D270A128A117808F400B6
:1001A8006030F50001300A128A1188260A128A1175
:1001B80005300A128A115E270A128A115228061B74
:1001C800E628E728FD280A128A118D270A128A11C3
:1001D8007808F4006630F50001300A128A11882682
:1001E8000A128A1108300A128A115E270A128A1125
:1001F8005228861B002901299E280A128A118D2758
:100208000A128A117808F4005630F50001300A12F3
:100218008A1188260A128A1100300A128A115E276A
:100228000A128A115228061D1A291B298C29033003
:100238007B06031D202921298C290430FB00061484
:10024800861406118615061A2A292B2941290A120D
:100258008A118D270A128A117808F4005C30F5009B
:1002680001300A128A1188260A128A1103300A12EA
:100278008A115E270A128A115228861A44294529AA
:100288005B290A128A118D270A128A117808F4004C
:100298006230F50001300A128A1188260A128A1182
:1002A80006300A128A115E270A128A115228061B82
:1002B8005E295F2975290A128A118D270A128A1167
:1002C8007808F4006830F50001300A128A1188268F
:1002D8000A128A1109300A128A115E270A128A1133
:1002E8005228861B782979299E287908B700F801B1
:1002F800F901083083120313A2009D30A1000530D4
:10030800A000A00B8529A10B8529A20B8529242AE9
:10031800861D8F299029242A04307B06031D9529E0
:100328009629242AFB01FB0A061486140615861151
:10033800061A9F29A029BE290A128A11B2270A1271
:100348008A11F401F40A0E30F50000300A128A11FD
:1003580088260A128A11193083120313B700F40190
:10036800F40A4A30F50001300A128A1188260A1266
:100378008A115628861AC129C229E0290A128A1127
:10038800B2270A128A11F401F40A1A30F500003073
:100398000A128A1188260A128A113230831203132C
:1003A800B700F401F40A4630F50001300A128A1148
:1003B80088260A128A115628061BE329E429022AEC
:1003C8000A128A11B2270A128A11F401F40A263095
:1003D800F50000300A128A1188260A128A114B3059
:1003E80083120313B700F401F40A4E30F50001300C
:1003F8000A128A1188260A128A115628861B052A8B
:10040800062A9E280A128A11B2270A128A11F401B2
:10041800F40A3230F50000300A128A1188260A12CE
:100428008A115F3083120313B700F401F40A5230C3
:10043800F50001300A128A1188260A128A115628F4
:10044800831203132608FF0025088A002408840065
:10045800230E8300FE0E7E0E090083120313A900EB
:100468002908A70004300310A70CFF3E031D372AF4
:1004780027080139A800A80E08082806EF39280619
:1004880088002908A70005300310A70CFF3E031DAC
:10049800482A27080139A800A80EA80D0808280628
:1004A800DF39280688002908A70006300310A70CA2
:1004B800FF3E031D5A2A27080139A800A80EA80DD7
:1004C800A80D08082806BF39280688002908A700AB
:1004D80007300310A70CFF3E031D6D2A27080139BA
:1004E800A800A80CA80C080828067F392806880048
:1004F800081488140000831203138810073083122D
:100508000313A8007C30A700A70B882AA80B882A09
:1005180000008312031329080139A700A70E080851
:100528002706EF39270688002908A7000310270C9B
:100538000139A800A80EA80D08082806DF392806E2
:1005480088002908A70002300310A70CFF3E031DEE
:10055800A82A27080139A800A80EA80DA80D080880
:100568002806BF39280688002908A7000330031089
:10057800A70CFF3E031DBB2A27080139A800A80CB9
:10058800A80C080828067F39280688008814000067
:10059800831203138810143083120313A8007930D0
:1005A800A700A70BD52AA80BD52A08008312031386
:1005B800A9002908A70004300310A70CFF3E031D5B
:1005C800E02A27080139A800A80E08082806EF39EC
:1005D800280688002908A70005300310A70CFF3E4D
:1005E800031DF12A27080139A800A80EA80D08083C
:1005F8002806DF39280688002908A70006300310D6
:10060800A70CFF3E031D032B27080139A800A80EDD
:10061800A80DA80D08082806BF392806880029084B
:10062800A70007300310A70CFF3E031D162B270851
:100638000139A800A80CA80C080828067F39280644
:1006480088000810881400008312031388100730EC
:1006580083120313A8007C30A700A70B312BA80B2B
:10066800312B00008312031329080139A700A70EB4
:1006780008082706EF39270688002908A70003106D
:10068800270C0139A800A80EA80D08082806DF398C
:10069800280688002908A70002300310A70CFF3E8F
:1006A800031D512B27080139A800A80EA80DA80D75
:1006B80008082806BF39280688002908A70003303B
:1006C8000310A70CFF3E031D642B27080139A8005F
:1006D800A80CA80C080828067F3928068800881462
:1006E8000000831203138810143083120313A80028
:1006F8007930A700A70B7E2BA80B7E2B0800F200F1
:100708007208F00004300310F00CFF3E031D872B25
:1007180070080139F100F10E8312031308087106FD
:10072800EF39710688007208F00005300310F00CEC
:10073800FF3E031D9A2B70080139F100F10EF10DEF
:1007480008087106DF39710688007208F000063063
:100758000310F00CFF3E031DAC2B70080139F100AB
:10076800F10EF10DF10D08087106BF397106880008
:100778007208F00007300310F00CFF3E031DBF2B7A
:1007880070080139F100F10CF10C080871067F3985
:100798007106880008148814000083120313881057
:1007A8000730F1007D30F000F00BD82BF10BD82B7F
:1007B80072080139F000F00E83120313080870065E
:1007C800EF39700688007208F0000310700C0139C8
:1007D800F100F10EF10D08087106DF397106880085
:1007E8007208F00002300310F00CFF3E031DF72BD7
:1007F80070080139F100F10EF10DF10D08087106CC
:10080800BF39710688007208F00003300310F00C3D
:10081800FF3E031D0A2C70080139F100F10CF10CA0
:10082800080871067F397106880088140000831251
:10083800031388101430F1007930F000F00B222CEB
:10084800F10B222C272C0800F2007208F00004306B
:100858000310F00CFF3E031D2C2C70080139F10029
:10086800F10E8312031308087106EF397106880028
:100878007208F00005300310F00CFF3E031D3F2CFA
:1008880070080139F100F10EF10D08087106DF3921
:10089800710688007208F00006300310F00CFF3E65
:1008A800031D512C70080139F100F10EF10DF10D05
:1008B80008087106BF39710688007208F000073011
:1008C8000310F00CFF3E031D642C70080139F10081
:1008D800F10CF10C080871067F39710688000810C0
:1008E800881400008312031388100730F1007D304C
:1008F800F000F00B7D2CF10B7D2C72080139F00013
:10090800F00E8312031308087006EF39700688008A
:100918007208F0000310700C0139F100F10EF10DAE
:1009280008087106DF39710688007208F000023085
:100938000310F00CFF3E031D9C2C70080139F100D8
:10094800F10EF10DF10D08087106BF397106880026
:100958007208F00003300310F00CFF3E031DAF2CAB
:1009680070080139F100F10CF10C080871067F39A3
:10097800710688008814000083120313881014304D
:10098800F1007930F000F00BC72CF10BC72CCC2C00
:02099800080055
:100A000005308A000408840A8207003443346F34B6
:100A10006E34743472346F346C3465342034503432
:100A200057344D340034503457344D3420344D3421
:100A30004F3444344F34203441343A340034503449
:100A400057344D3420344D344F3444344F342034F3
:100A500042343A340034503457344D3420344D3419
:100A60004F3444344F34203443343A340034503417
:100A700057344D3420344D344F3444344F342034C3
:100A800044343A3400344D3441344E3455344134D6
:100A90004C343A3400343534303425340034323474
:100AA0003534253400343734353425340034393482
:100AB00035342534003430340034313400343234A9
:100AC00000343334003434340034353400343634B4
:100AD00000343734003438340034393400340730CB
:100AE000831603139C00831203139F0106308316A1
:100AF00003139F00863081008B170B178B166C3009
:100B0000831203138100F930831603139200073018
:100B10008312031392000C30970083160313850190
:100B2000F030860087018801890183120313850153
:100B3000FF3086008701880189010A128A11C726C1
:100B40000A128A110A128A11A1270A128A11831223
:100B50000313AB01AB0A0130AC0000300A128A115A
:100B600045260A128A11643083120313AD00003047
:100B7000AE003708B500B6013508A7003608A80052
:100B8000FF30A9000030AA000A128A11F5260A12C5
:100B90008A11831203132808B0002708AF000A1235
:100BA0008A11DC250A128A11831203132D0895007D
:100BB000B32D0A128A11122883120313B201AE1F39
:100BC000E22DE32DEA2DAD09AE09AD0A0319AE0AF7
:100BD000B201B20AB01FED2DEE2DF72DAF09B0090D
:100BE000AF0A0319B00A0130FF007F08B206B30153
:100BF000B4012D082E040319FE2DFF2D362EB10150
:100C0000B10A0D2E01300310AD0DAE0DFF3E031DD8
:100C1000032E0130FF007F08B107AE1F102E112EEA
:100C2000022E01300310B30DB40DFF3E031D122E32
:100C30002E083002031D1E2E2D082F02031C212E0C
:100C4000222E292E2D08AF022E08031CB003B0025D
:100C5000331401300310AE0CAD0CFF3E031D2A2EE1
:100C60000130B102031D352E362E112E3208031924
:100C70003A2E3B2E402EB309B409B30A0319B40A25
:100C80003408AE003308AD00080083120313AD0032
:100C9000712E2B08803EAE002E080A128A11DA222D
:100CA0000A128A117F2E2B08C03EAE002E080A12AF
:100CB0008A11DA220A128A117F2E2B08943EAE0086
:100CC0002E080A128A11DA220A128A117F2E2B08A4
:100CD000D43EAE002E080A128A11DA220A128A11B4
:100CE0007F2E2D08003A0319492E013A0319532E7D
:100CF000033A03195D2E013A0319672E7F2E8312E2
:100D000003132C080A128A111C270A128A110800E0
:100D1000F600B22E7408803EF70077080A128A1196
:100D200028240A128A11C02E7408C03EF7007708E2
:100D30000A128A1128240A128A11C02E7408943EBD
:100D4000F70077080A128A1128240A128A11C02E85
:100D50007408D43EF70077080A128A1128240A1270
:100D60008A11C02E7608003A03198A2E013A031917
:100D7000942E033A03199E2E013A0319A82EC02E71
:100D800075080A128A113F270A128A1108000230D8
:100D900083120313AC000430AB00B930AA00AA0BD5
:100DA000CF2EAB0BCF2EAC0BCF2ED62E02300A128D
:100DB0008A11DA220A128A1128300A128A11DA22DA
:100DC0000A128A1101300A128A11DA220A128A11D1
:100DD0000C300A128A11DA220A128A1106300A121B
:100DE0008A11DA220A128A11080083120313AB0156
:100DF000AC01271CFC2EFD2E032F2908AB0703187E
:100E0000AC0A2A08AC0701300310A90DAA0DFF3E59
:100E1000031D042F01300310A80CA70CFF3E031D77
:100E20000B2F27082804031D162F172FF92E2C0827
:100E3000A8002B08A700080083120313AA00322F72
:100E40002A0884000A128A1100250A128A110A123D
:100E50008A1131220A128A110130FF007F088312A1
:100E60000313AA072A0884000A128A1100250A120D
:100E70008A11003A031D3D2F3E2F202F0800F3005A
:100E8000512F730884000A128A1100250A128A1150
:100E90000A128A1183230A128A110130FF007F0887
:100EA000F307730884000A128A1100250A128A11B6
:100EB000003A031D5C2F5D2F412F0800F3006F2FB8
:100EC0000A30F00073080A128A1178270A128A1170
:100ED0007907F900772F73087907F900772F7808D9
:100EE000003A0319602F013A03196B2F772F08007E
:100EF000F200F101721C7D2F7E2F822F7008FF00FF
:100F00007F08F1070310F00D0310F20C7208031DA7
:100F10008A2F8B2F7A2F710808007808031D912FD4
:100F2000922FA02F0A128A11B2270A128A11F401F5
:100F30003E30F50000300A128A1188260A128A1102
:100F4000080001300A128A11DA220A128A111430BA
:100F500083120313AB007930AA00AA0BAD2FAB0BA1
:100F6000AD2F080001300A128A1128240A128A11B2
:100F70001430F4007930F300F30BBC2FF40BBC2FCA
:060F8000C12F080001343E
:08400000FF3FFF3FFF3FFF3FC0
:02400E003A3F37
:00000001FF
